{
  "_format": "hh-sol-artifact-1",
  "contractName": "RandNFT",
  "sourceName": "contracts/RandNFT.sol",
  "abi": [
    {
      "inputs": [],
      "stateMutability": "nonpayable",
      "type": "constructor"
    },
    {
      "anonymous": false,
      "inputs": [
        {
          "indexed": true,
          "internalType": "address",
          "name": "owner",
          "type": "address"
        },
        {
          "indexed": true,
          "internalType": "address",
          "name": "approved",
          "type": "address"
        },
        {
          "indexed": true,
          "internalType": "uint256",
          "name": "tokenId",
          "type": "uint256"
        }
      ],
      "name": "Approval",
      "type": "event"
    },
    {
      "anonymous": false,
      "inputs": [
        {
          "indexed": true,
          "internalType": "address",
          "name": "owner",
          "type": "address"
        },
        {
          "indexed": true,
          "internalType": "address",
          "name": "operator",
          "type": "address"
        },
        {
          "indexed": false,
          "internalType": "bool",
          "name": "approved",
          "type": "bool"
        }
      ],
      "name": "ApprovalForAll",
      "type": "event"
    },
    {
      "anonymous": false,
      "inputs": [
        {
          "indexed": false,
          "internalType": "uint256",
          "name": "_fromTokenId",
          "type": "uint256"
        },
        {
          "indexed": false,
          "internalType": "uint256",
          "name": "_toTokenId",
          "type": "uint256"
        }
      ],
      "name": "BatchMetadataUpdate",
      "type": "event"
    },
    {
      "anonymous": false,
      "inputs": [
        {
          "indexed": false,
          "internalType": "uint256",
          "name": "_tokenId",
          "type": "uint256"
        }
      ],
      "name": "MetadataUpdate",
      "type": "event"
    },
    {
      "anonymous": false,
      "inputs": [
        {
          "indexed": true,
          "internalType": "address",
          "name": "previousOwner",
          "type": "address"
        },
        {
          "indexed": true,
          "internalType": "address",
          "name": "newOwner",
          "type": "address"
        }
      ],
      "name": "OwnershipTransferred",
      "type": "event"
    },
    {
      "anonymous": false,
      "inputs": [
        {
          "indexed": true,
          "internalType": "address",
          "name": "from",
          "type": "address"
        },
        {
          "indexed": true,
          "internalType": "address",
          "name": "to",
          "type": "address"
        },
        {
          "indexed": true,
          "internalType": "uint256",
          "name": "tokenId",
          "type": "uint256"
        }
      ],
      "name": "Transfer",
      "type": "event"
    },
    {
      "inputs": [
        {
          "internalType": "uint256",
          "name": "tokenId",
          "type": "uint256"
        }
      ],
      "name": "addToMetamaskWallet",
      "outputs": [],
      "stateMutability": "nonpayable",
      "type": "function"
    },
    {
      "inputs": [
        {
          "internalType": "address",
          "name": "to",
          "type": "address"
        },
        {
          "internalType": "uint256",
          "name": "tokenId",
          "type": "uint256"
        }
      ],
      "name": "approve",
      "outputs": [],
      "stateMutability": "nonpayable",
      "type": "function"
    },
    {
      "inputs": [
        {
          "internalType": "address",
          "name": "owner",
          "type": "address"
        }
      ],
      "name": "balanceOf",
      "outputs": [
        {
          "internalType": "uint256",
          "name": "",
          "type": "uint256"
        }
      ],
      "stateMutability": "view",
      "type": "function"
    },
    {
      "inputs": [],
      "name": "count",
      "outputs": [
        {
          "internalType": "uint256",
          "name": "",
          "type": "uint256"
        }
      ],
      "stateMutability": "view",
      "type": "function"
    },
    {
      "inputs": [
        {
          "internalType": "uint256",
          "name": "tokenId",
          "type": "uint256"
        }
      ],
      "name": "getApproved",
      "outputs": [
        {
          "internalType": "address",
          "name": "",
          "type": "address"
        }
      ],
      "stateMutability": "view",
      "type": "function"
    },
    {
      "inputs": [
        {
          "internalType": "address",
          "name": "owner",
          "type": "address"
        },
        {
          "internalType": "address",
          "name": "operator",
          "type": "address"
        }
      ],
      "name": "isApprovedForAll",
      "outputs": [
        {
          "internalType": "bool",
          "name": "",
          "type": "bool"
        }
      ],
      "stateMutability": "view",
      "type": "function"
    },
    {
      "inputs": [
        {
          "internalType": "string",
          "name": "uri",
          "type": "string"
        }
      ],
      "name": "isContentOwned",
      "outputs": [
        {
          "internalType": "bool",
          "name": "",
          "type": "bool"
        }
      ],
      "stateMutability": "view",
      "type": "function"
    },
    {
      "inputs": [],
      "name": "name",
      "outputs": [
        {
          "internalType": "string",
          "name": "",
          "type": "string"
        }
      ],
      "stateMutability": "view",
      "type": "function"
    },
    {
      "inputs": [],
      "name": "owner",
      "outputs": [
        {
          "internalType": "address",
          "name": "",
          "type": "address"
        }
      ],
      "stateMutability": "view",
      "type": "function"
    },
    {
      "inputs": [
        {
          "internalType": "uint256",
          "name": "tokenId",
          "type": "uint256"
        }
      ],
      "name": "ownerOf",
      "outputs": [
        {
          "internalType": "address",
          "name": "",
          "type": "address"
        }
      ],
      "stateMutability": "view",
      "type": "function"
    },
    {
      "inputs": [
        {
          "internalType": "address",
          "name": "recipient",
          "type": "address"
        },
        {
          "internalType": "string",
          "name": "metadataURI",
          "type": "string"
        }
      ],
      "name": "payToMint",
      "outputs": [
        {
          "internalType": "uint256",
          "name": "",
          "type": "uint256"
        }
      ],
      "stateMutability": "payable",
      "type": "function"
    },
    {
      "inputs": [],
      "name": "renounceOwnership",
      "outputs": [],
      "stateMutability": "nonpayable",
      "type": "function"
    },
    {
      "inputs": [
        {
          "internalType": "address",
          "name": "to",
          "type": "address"
        },
        {
          "internalType": "string",
          "name": "uri",
          "type": "string"
        }
      ],
      "name": "safeMint",
      "outputs": [],
      "stateMutability": "nonpayable",
      "type": "function"
    },
    {
      "inputs": [
        {
          "internalType": "address",
          "name": "from",
          "type": "address"
        },
        {
          "internalType": "address",
          "name": "to",
          "type": "address"
        },
        {
          "internalType": "uint256",
          "name": "tokenId",
          "type": "uint256"
        }
      ],
      "name": "safeTransferFrom",
      "outputs": [],
      "stateMutability": "nonpayable",
      "type": "function"
    },
    {
      "inputs": [
        {
          "internalType": "address",
          "name": "from",
          "type": "address"
        },
        {
          "internalType": "address",
          "name": "to",
          "type": "address"
        },
        {
          "internalType": "uint256",
          "name": "tokenId",
          "type": "uint256"
        },
        {
          "internalType": "bytes",
          "name": "data",
          "type": "bytes"
        }
      ],
      "name": "safeTransferFrom",
      "outputs": [],
      "stateMutability": "nonpayable",
      "type": "function"
    },
    {
      "inputs": [
        {
          "internalType": "address",
          "name": "operator",
          "type": "address"
        },
        {
          "internalType": "bool",
          "name": "approved",
          "type": "bool"
        }
      ],
      "name": "setApprovalForAll",
      "outputs": [],
      "stateMutability": "nonpayable",
      "type": "function"
    },
    {
      "inputs": [
        {
          "internalType": "bytes4",
          "name": "interfaceId",
          "type": "bytes4"
        }
      ],
      "name": "supportsInterface",
      "outputs": [
        {
          "internalType": "bool",
          "name": "",
          "type": "bool"
        }
      ],
      "stateMutability": "view",
      "type": "function"
    },
    {
      "inputs": [],
      "name": "symbol",
      "outputs": [
        {
          "internalType": "string",
          "name": "",
          "type": "string"
        }
      ],
      "stateMutability": "view",
      "type": "function"
    },
    {
      "inputs": [
        {
          "internalType": "uint256",
          "name": "tokenId",
          "type": "uint256"
        }
      ],
      "name": "tokenURI",
      "outputs": [
        {
          "internalType": "string",
          "name": "",
          "type": "string"
        }
      ],
      "stateMutability": "view",
      "type": "function"
    },
    {
      "inputs": [
        {
          "internalType": "address",
          "name": "from",
          "type": "address"
        },
        {
          "internalType": "address",
          "name": "to",
          "type": "address"
        },
        {
          "internalType": "uint256",
          "name": "tokenId",
          "type": "uint256"
        }
      ],
      "name": "transferFrom",
      "outputs": [],
      "stateMutability": "nonpayable",
      "type": "function"
    },
    {
      "inputs": [
        {
          "internalType": "address",
          "name": "newOwner",
          "type": "address"
        }
      ],
      "name": "transferOwnership",
      "outputs": [],
      "stateMutability": "nonpayable",
      "type": "function"
    }
  ],
  "bytecode": "0x60806040523480156200001157600080fd5b506040518060400160405280600781526020017f52616e644e4654000000000000000000000000000000000000000000000000008152506040518060400160405280600381526020017f4659520000000000000000000000000000000000000000000000000000000000815250816000908051906020019062000096929190620001a6565b508060019080519060200190620000af929190620001a6565b505050620000d2620000c6620000d860201b60201c565b620000e060201b60201c565b620002bb565b600033905090565b6000600760009054906101000a900473ffffffffffffffffffffffffffffffffffffffff16905081600760006101000a81548173ffffffffffffffffffffffffffffffffffffffff021916908373ffffffffffffffffffffffffffffffffffffffff1602179055508173ffffffffffffffffffffffffffffffffffffffff168173ffffffffffffffffffffffffffffffffffffffff167f8be0079c531659141344cd1fd0a4f28419497f9722a3daafe3b4186f6b6457e060405160405180910390a35050565b828054620001b49062000256565b90600052602060002090601f016020900481019282620001d8576000855562000224565b82601f10620001f357805160ff191683800117855562000224565b8280016001018555821562000224579182015b828111156200022357825182559160200191906001019062000206565b5b50905062000233919062000237565b5090565b5b808211156200025257600081600090555060010162000238565b5090565b600060028204905060018216806200026f57607f821691505b602082108114156200028657620002856200028c565b5b50919050565b7f4e487b7100000000000000000000000000000000000000000000000000000000600052602260045260246000fd5b61344380620002cb6000396000f3fe60806040526004361061012a5760003560e01c8063715018a6116100ab578063b88d4fde1161006f578063b88d4fde146103f7578063c87b56dd14610420578063d204c45e1461045d578063e985e9c514610486578063f2fde38b146104c3578063f9905223146104ec5761012a565b8063715018a6146103245780638da5cb5b1461033b57806395d89b41146103665780639f1cabc614610391578063a22cb465146103ce5761012a565b806323b872dd116100f257806323b872dd1461022857806342842e0e14610251578063615fd9e21461027a5780636352211e146102aa57806370a08231146102e75761012a565b806301ffc9a71461012f57806306661abd1461016c57806306fdde0314610197578063081812fc146101c2578063095ea7b3146101ff575b600080fd5b34801561013b57600080fd5b50610156600480360381019061015191906125eb565b610515565b6040516101639190612a8f565b60405180910390f35b34801561017857600080fd5b50610181610527565b60405161018e9190612d0c565b60405180910390f35b3480156101a357600080fd5b506101ac610538565b6040516101b99190612aaa565b60405180910390f35b3480156101ce57600080fd5b506101e960048036038101906101e4919061267e565b6105ca565b6040516101f69190612a28565b60405180910390f35b34801561020b57600080fd5b50610226600480360381019061022191906125af565b610610565b005b34801561023457600080fd5b5061024f600480360381019061024a9190612455565b610728565b005b34801561025d57600080fd5b5061027860048036038101906102739190612455565b610788565b005b610294600480360381019061028f919061255b565b6107a8565b6040516102a19190612d0c565b60405180910390f35b3480156102b657600080fd5b506102d160048036038101906102cc919061267e565b6108d4565b6040516102de9190612a28565b60405180910390f35b3480156102f357600080fd5b5061030e600480360381019061030991906123f0565b61095b565b60405161031b9190612d0c565b60405180910390f35b34801561033057600080fd5b50610339610a13565b005b34801561034757600080fd5b50610350610a27565b60405161035d9190612a28565b60405180910390f35b34801561037257600080fd5b5061037b610a51565b6040516103889190612aaa565b60405180910390f35b34801561039d57600080fd5b506103b860048036038101906103b3919061263d565b610ae3565b6040516103c59190612a8f565b60405180910390f35b3480156103da57600080fd5b506103f560048036038101906103f0919061251f565b610b1e565b005b34801561040357600080fd5b5061041e600480360381019061041991906124a4565b610b34565b005b34801561042c57600080fd5b506104476004803603810190610442919061267e565b610b96565b6040516104549190612aaa565b60405180910390f35b34801561046957600080fd5b50610484600480360381019061047f919061255b565b610ba8565b005b34801561049257600080fd5b506104ad60048036038101906104a89190612419565b610c19565b6040516104ba9190612a8f565b60405180910390f35b3480156104cf57600080fd5b506104ea60048036038101906104e591906123f0565b610cad565b005b3480156104f857600080fd5b50610513600480360381019061050e919061267e565b610d31565b005b600061052082610e02565b9050919050565b60006105336008610e63565b905090565b60606000805461054790612ea7565b80601f016020809104026020016040519081016040528092919081815260200182805461057390612ea7565b80156105c05780601f10610595576101008083540402835291602001916105c0565b820191906000526020600020905b8154815290600101906020018083116105a357829003601f168201915b5050505050905090565b60006105d582610e71565b6004600083815260200190815260200160002060009054906101000a900473ffffffffffffffffffffffffffffffffffffffff169050919050565b600061061b826108d4565b90508073ffffffffffffffffffffffffffffffffffffffff168373ffffffffffffffffffffffffffffffffffffffff16141561068c576040517f08c379a000000000000000000000000000000000000000000000000000000000815260040161068390612c8c565b60405180910390fd5b8073ffffffffffffffffffffffffffffffffffffffff166106ab610ebc565b73ffffffffffffffffffffffffffffffffffffffff1614806106da57506106d9816106d4610ebc565b610c19565b5b610719576040517f08c379a000000000000000000000000000000000000000000000000000000000815260040161071090612cac565b60405180910390fd5b6107238383610ec4565b505050565b610739610733610ebc565b82610f7d565b610778576040517f08c379a000000000000000000000000000000000000000000000000000000000815260040161076f90612acc565b60405180910390fd5b610783838383611012565b505050565b6107a383838360405180602001604052806000815250610b34565b505050565b600060016009836040516107bc91906129ed565b908152602001604051809103902060009054906101000a900460ff1660ff16141561081c576040517f08c379a000000000000000000000000000000000000000000000000000000000815260040161081390612ccc565b60405180910390fd5b662386f26fc10000341015610866576040517f08c379a000000000000000000000000000000000000000000000000000000000815260040161085d90612cec565b60405180910390fd5b60006108726008610e63565b905061087e600861130c565b600160098460405161089091906129ed565b908152602001604051809103902060006101000a81548160ff021916908360ff1602179055506108c08482611322565b6108ca8184611540565b8091505092915050565b6000806108e0836115eb565b9050600073ffffffffffffffffffffffffffffffffffffffff168173ffffffffffffffffffffffffffffffffffffffff161415610952576040517f08c379a000000000000000000000000000000000000000000000000000000000815260040161094990612c6c565b60405180910390fd5b80915050919050565b60008073ffffffffffffffffffffffffffffffffffffffff168273ffffffffffffffffffffffffffffffffffffffff1614156109cc576040517f08c379a00000000000000000000000000000000000000000000000000000000081526004016109c390612bec565b60405180910390fd5b600360008373ffffffffffffffffffffffffffffffffffffffff1673ffffffffffffffffffffffffffffffffffffffff168152602001908152602001600020549050919050565b610a1b611628565b610a2560006116a6565b565b6000600760009054906101000a900473ffffffffffffffffffffffffffffffffffffffff16905090565b606060018054610a6090612ea7565b80601f0160208091040260200160405190810160405280929190818152602001828054610a8c90612ea7565b8015610ad95780601f10610aae57610100808354040283529160200191610ad9565b820191906000526020600020905b815481529060010190602001808311610abc57829003601f168201915b5050505050905090565b60006001600983604051610af791906129ed565b908152602001604051809103902060009054906101000a900460ff1660ff16149050919050565b610b30610b29610ebc565b838361176c565b5050565b610b45610b3f610ebc565b83610f7d565b610b84576040517f08c379a0000000000000000000000000000000000000000000000000000000008152600401610b7b90612acc565b60405180910390fd5b610b90848484846118d9565b50505050565b6060610ba182611935565b9050919050565b610bb0611628565b6000610bbc6008610e63565b9050610bc8600861130c565b610bd28382611a48565b610bdc8183611540565b6001600983604051610bee91906129ed565b908152602001604051809103902060006101000a81548160ff021916908360ff160217905550505050565b6000600560008473ffffffffffffffffffffffffffffffffffffffff1673ffffffffffffffffffffffffffffffffffffffff16815260200190815260200160002060008373ffffffffffffffffffffffffffffffffffffffff1673ffffffffffffffffffffffffffffffffffffffff16815260200190815260200160002060009054906101000a900460ff16905092915050565b610cb5611628565b600073ffffffffffffffffffffffffffffffffffffffff168173ffffffffffffffffffffffffffffffffffffffff161415610d25576040517f08c379a0000000000000000000000000000000000000000000000000000000008152600401610d1c90612b0c565b60405180910390fd5b610d2e816116a6565b50565b610d3a81611a66565b610d79576040517f08c379a0000000000000000000000000000000000000000000000000000000008152600401610d7090612bac565b60405180910390fd5b3373ffffffffffffffffffffffffffffffffffffffff16610d99826108d4565b73ffffffffffffffffffffffffffffffffffffffff1614610def576040517f08c379a0000000000000000000000000000000000000000000000000000000008152600401610de690612bcc565b60405180910390fd5b6000339050610dfe8183610ec4565b5050565b6000634906490660e01b7bffffffffffffffffffffffffffffffffffffffffffffffffffffffff1916827bffffffffffffffffffffffffffffffffffffffffffffffffffffffff19161480610e5c5750610e5b82611aa7565b5b9050919050565b600081600001549050919050565b610e7a81611a66565b610eb9576040517f08c379a0000000000000000000000000000000000000000000000000000000008152600401610eb090612c6c565b60405180910390fd5b50565b600033905090565b816004600083815260200190815260200160002060006101000a81548173ffffffffffffffffffffffffffffffffffffffff021916908373ffffffffffffffffffffffffffffffffffffffff160217905550808273ffffffffffffffffffffffffffffffffffffffff16610f37836108d4565b73ffffffffffffffffffffffffffffffffffffffff167f8c5be1e5ebec7d5bd14f71427d1e84f3dd0314c0f7b2291e5b200ac8c7c3b92560405160405180910390a45050565b600080610f89836108d4565b90508073ffffffffffffffffffffffffffffffffffffffff168473ffffffffffffffffffffffffffffffffffffffff161480610fcb5750610fca8185610c19565b5b8061100957508373ffffffffffffffffffffffffffffffffffffffff16610ff1846105ca565b73ffffffffffffffffffffffffffffffffffffffff16145b91505092915050565b8273ffffffffffffffffffffffffffffffffffffffff16611032826108d4565b73ffffffffffffffffffffffffffffffffffffffff1614611088576040517f08c379a000000000000000000000000000000000000000000000000000000000815260040161107f90612b2c565b60405180910390fd5b600073ffffffffffffffffffffffffffffffffffffffff168273ffffffffffffffffffffffffffffffffffffffff1614156110f8576040517f08c379a00000000000000000000000000000000000000000000000000000000081526004016110ef90612b6c565b60405180910390fd5b6111058383836001611b89565b8273ffffffffffffffffffffffffffffffffffffffff16611125826108d4565b73ffffffffffffffffffffffffffffffffffffffff161461117b576040517f08c379a000000000000000000000000000000000000000000000000000000000815260040161117290612b2c565b60405180910390fd5b6004600082815260200190815260200160002060006101000a81549073ffffffffffffffffffffffffffffffffffffffff02191690556001600360008573ffffffffffffffffffffffffffffffffffffffff1673ffffffffffffffffffffffffffffffffffffffff168152602001908152602001600020600082825403925050819055506001600360008473ffffffffffffffffffffffffffffffffffffffff1673ffffffffffffffffffffffffffffffffffffffff16815260200190815260200160002060008282540192505081905550816002600083815260200190815260200160002060006101000a81548173ffffffffffffffffffffffffffffffffffffffff021916908373ffffffffffffffffffffffffffffffffffffffff160217905550808273ffffffffffffffffffffffffffffffffffffffff168473ffffffffffffffffffffffffffffffffffffffff167fddf252ad1be2c89b69c2b068fc378daa952ba7f163c4a11628f55a4df523b3ef60405160405180910390a46113078383836001611b8f565b505050565b6001816000016000828254019250508190555050565b600073ffffffffffffffffffffffffffffffffffffffff168273ffffffffffffffffffffffffffffffffffffffff161415611392576040517f08c379a000000000000000000000000000000000000000000000000000000000815260040161138990612c2c565b60405180910390fd5b61139b81611a66565b156113db576040517f08c379a00000000000000000000000000000000000000000000000000000000081526004016113d290612b4c565b60405180910390fd5b6113e9600083836001611b89565b6113f281611a66565b15611432576040517f08c379a000000000000000000000000000000000000000000000000000000000815260040161142990612b4c565b60405180910390fd5b6001600360008473ffffffffffffffffffffffffffffffffffffffff1673ffffffffffffffffffffffffffffffffffffffff16815260200190815260200160002060008282540192505081905550816002600083815260200190815260200160002060006101000a81548173ffffffffffffffffffffffffffffffffffffffff021916908373ffffffffffffffffffffffffffffffffffffffff160217905550808273ffffffffffffffffffffffffffffffffffffffff16600073ffffffffffffffffffffffffffffffffffffffff167fddf252ad1be2c89b69c2b068fc378daa952ba7f163c4a11628f55a4df523b3ef60405160405180910390a461153c600083836001611b8f565b5050565b61154982611a66565b611588576040517f08c379a000000000000000000000000000000000000000000000000000000000815260040161157f90612c0c565b60405180910390fd5b806006600084815260200190815260200160002090805190602001906115af929190612214565b507ff8e1a15aba9398e019f0b49df1a4fde98ee17ae345cb5f6b5e2c27f5033e8ce7826040516115df9190612d0c565b60405180910390a15050565b60006002600083815260200190815260200160002060009054906101000a900473ffffffffffffffffffffffffffffffffffffffff169050919050565b611630610ebc565b73ffffffffffffffffffffffffffffffffffffffff1661164e610a27565b73ffffffffffffffffffffffffffffffffffffffff16146116a4576040517f08c379a000000000000000000000000000000000000000000000000000000000815260040161169b90612c4c565b60405180910390fd5b565b6000600760009054906101000a900473ffffffffffffffffffffffffffffffffffffffff16905081600760006101000a81548173ffffffffffffffffffffffffffffffffffffffff021916908373ffffffffffffffffffffffffffffffffffffffff1602179055508173ffffffffffffffffffffffffffffffffffffffff168173ffffffffffffffffffffffffffffffffffffffff167f8be0079c531659141344cd1fd0a4f28419497f9722a3daafe3b4186f6b6457e060405160405180910390a35050565b8173ffffffffffffffffffffffffffffffffffffffff168373ffffffffffffffffffffffffffffffffffffffff1614156117db576040517f08c379a00000000000000000000000000000000000000000000000000000000081526004016117d290612b8c565b60405180910390fd5b80600560008573ffffffffffffffffffffffffffffffffffffffff1673ffffffffffffffffffffffffffffffffffffffff16815260200190815260200160002060008473ffffffffffffffffffffffffffffffffffffffff1673ffffffffffffffffffffffffffffffffffffffff16815260200190815260200160002060006101000a81548160ff0219169083151502179055508173ffffffffffffffffffffffffffffffffffffffff168373ffffffffffffffffffffffffffffffffffffffff167f17307eab39ab6107e8899845ad3d59bd9653f200f220920489ca2b5937696c31836040516118cc9190612a8f565b60405180910390a3505050565b6118e4848484611012565b6118f084848484611b95565b61192f576040517f08c379a000000000000000000000000000000000000000000000000000000000815260040161192690612aec565b60405180910390fd5b50505050565b606061194082610e71565b600060066000848152602001908152602001600020805461196090612ea7565b80601f016020809104026020016040519081016040528092919081815260200182805461198c90612ea7565b80156119d95780601f106119ae576101008083540402835291602001916119d9565b820191906000526020600020905b8154815290600101906020018083116119bc57829003601f168201915b5050505050905060006119ea611d2c565b9050600081511415611a00578192505050611a43565b600082511115611a35578082604051602001611a1d929190612a04565b60405160208183030381529060405292505050611a43565b611a3e84611d69565b925050505b919050565b611a62828260405180602001604052806000815250611dd1565b5050565b60008073ffffffffffffffffffffffffffffffffffffffff16611a88836115eb565b73ffffffffffffffffffffffffffffffffffffffff1614159050919050565b60007f80ac58cd000000000000000000000000000000000000000000000000000000007bffffffffffffffffffffffffffffffffffffffffffffffffffffffff1916827bffffffffffffffffffffffffffffffffffffffffffffffffffffffff19161480611b7257507f5b5e139f000000000000000000000000000000000000000000000000000000007bffffffffffffffffffffffffffffffffffffffffffffffffffffffff1916827bffffffffffffffffffffffffffffffffffffffffffffffffffffffff1916145b80611b825750611b8182611e2c565b5b9050919050565b50505050565b50505050565b6000611bb68473ffffffffffffffffffffffffffffffffffffffff16611e96565b15611d1f578373ffffffffffffffffffffffffffffffffffffffff1663150b7a02611bdf610ebc565b8786866040518563ffffffff1660e01b8152600401611c019493929190612a43565b602060405180830381600087803b158015611c1b57600080fd5b505af1925050508015611c4c57506040513d601f19601f82011682018060405250810190611c499190612614565b60015b611ccf573d8060008114611c7c576040519150601f19603f3d011682016040523d82523d6000602084013e611c81565b606091505b50600081511415611cc7576040517f08c379a0000000000000000000000000000000000000000000000000000000008152600401611cbe90612aec565b60405180910390fd5b805181602001fd5b63150b7a0260e01b7bffffffffffffffffffffffffffffffffffffffffffffffffffffffff1916817bffffffffffffffffffffffffffffffffffffffffffffffffffffffff191614915050611d24565b600190505b949350505050565b60606040518060400160405280600781526020017f697066733a2f2f00000000000000000000000000000000000000000000000000815250905090565b6060611d7482610e71565b6000611d7e611d2c565b90506000815111611d9e5760405180602001604052806000815250611dc9565b80611da884611eb9565b604051602001611db9929190612a04565b6040516020818303038152906040525b915050919050565b611ddb8383611322565b611de86000848484611b95565b611e27576040517f08c379a0000000000000000000000000000000000000000000000000000000008152600401611e1e90612aec565b60405180910390fd5b505050565b60007f01ffc9a7000000000000000000000000000000000000000000000000000000007bffffffffffffffffffffffffffffffffffffffffffffffffffffffff1916827bffffffffffffffffffffffffffffffffffffffffffffffffffffffff1916149050919050565b6000808273ffffffffffffffffffffffffffffffffffffffff163b119050919050565b606060006001611ec884611fdd565b01905060008167ffffffffffffffff811115611f0d577f4e487b7100000000000000000000000000000000000000000000000000000000600052604160045260246000fd5b6040519080825280601f01601f191660200182016040528015611f3f5781602001600182028036833780820191505090505b509050600082602001820190505b600115611fd2578080600190039150507f3031323334353637383961626364656600000000000000000000000000000000600a86061a8153600a8581611fbc577f4e487b7100000000000000000000000000000000000000000000000000000000600052601260045260246000fd5b0494506000851415611fcd57611fd2565b611f4d565b819350505050919050565b600080600090507a184f03e93ff9f4daa797ed6e38ed64bf6a1f0100000000000000008310612061577a184f03e93ff9f4daa797ed6e38ed64bf6a1f0100000000000000008381612057577f4e487b7100000000000000000000000000000000000000000000000000000000600052601260045260246000fd5b0492506040810190505b6d04ee2d6d415b85acef810000000083106120c4576d04ee2d6d415b85acef810000000083816120ba577f4e487b7100000000000000000000000000000000000000000000000000000000600052601260045260246000fd5b0492506020810190505b662386f26fc10000831061211957662386f26fc10000838161210f577f4e487b7100000000000000000000000000000000000000000000000000000000600052601260045260246000fd5b0492506010810190505b6305f5e1008310612168576305f5e100838161215e577f4e487b7100000000000000000000000000000000000000000000000000000000600052601260045260246000fd5b0492506008810190505b61271083106121b35761271083816121a9577f4e487b7100000000000000000000000000000000000000000000000000000000600052601260045260246000fd5b0492506004810190505b606483106121fc57606483816121f2577f4e487b7100000000000000000000000000000000000000000000000000000000600052601260045260246000fd5b0492506002810190505b600a831061220b576001810190505b80915050919050565b82805461222090612ea7565b90600052602060002090601f0160209004810192826122425760008555612289565b82601f1061225b57805160ff1916838001178555612289565b82800160010185558215612289579182015b8281111561228857825182559160200191906001019061226d565b5b509050612296919061229a565b5090565b5b808211156122b357600081600090555060010161229b565b5090565b60006122ca6122c584612d4c565b612d27565b9050828152602081018484840111156122e257600080fd5b6122ed848285612e65565b509392505050565b600061230861230384612d7d565b612d27565b90508281526020810184848401111561232057600080fd5b61232b848285612e65565b509392505050565b600081359050612342816133b1565b92915050565b600081359050612357816133c8565b92915050565b60008135905061236c816133df565b92915050565b600081519050612381816133df565b92915050565b600082601f83011261239857600080fd5b81356123a88482602086016122b7565b91505092915050565b600082601f8301126123c257600080fd5b81356123d28482602086016122f5565b91505092915050565b6000813590506123ea816133f6565b92915050565b60006020828403121561240257600080fd5b600061241084828501612333565b91505092915050565b6000806040838503121561242c57600080fd5b600061243a85828601612333565b925050602061244b85828601612333565b9150509250929050565b60008060006060848603121561246a57600080fd5b600061247886828701612333565b935050602061248986828701612333565b925050604061249a868287016123db565b9150509250925092565b600080600080608085870312156124ba57600080fd5b60006124c887828801612333565b94505060206124d987828801612333565b93505060406124ea878288016123db565b925050606085013567ffffffffffffffff81111561250757600080fd5b61251387828801612387565b91505092959194509250565b6000806040838503121561253257600080fd5b600061254085828601612333565b925050602061255185828601612348565b9150509250929050565b6000806040838503121561256e57600080fd5b600061257c85828601612333565b925050602083013567ffffffffffffffff81111561259957600080fd5b6125a5858286016123b1565b9150509250929050565b600080604083850312156125c257600080fd5b60006125d085828601612333565b92505060206125e1858286016123db565b9150509250929050565b6000602082840312156125fd57600080fd5b600061260b8482850161235d565b91505092915050565b60006020828403121561262657600080fd5b600061263484828501612372565b91505092915050565b60006020828403121561264f57600080fd5b600082013567ffffffffffffffff81111561266957600080fd5b612675848285016123b1565b91505092915050565b60006020828403121561269057600080fd5b600061269e848285016123db565b91505092915050565b6126b081612df1565b82525050565b6126bf81612e03565b82525050565b60006126d082612dae565b6126da8185612dc4565b93506126ea818560208601612e74565b6126f381612f68565b840191505092915050565b600061270982612db9565b6127138185612dd5565b9350612723818560208601612e74565b61272c81612f68565b840191505092915050565b600061274282612db9565b61274c8185612de6565b935061275c818560208601612e74565b80840191505092915050565b6000612775602d83612dd5565b915061278082612f79565b604082019050919050565b6000612798603283612dd5565b91506127a382612fc8565b604082019050919050565b60006127bb602683612dd5565b91506127c682613017565b604082019050919050565b60006127de602583612dd5565b91506127e982613066565b604082019050919050565b6000612801601c83612dd5565b915061280c826130b5565b602082019050919050565b6000612824602483612dd5565b915061282f826130de565b604082019050919050565b6000612847601983612dd5565b91506128528261312d565b602082019050919050565b600061286a601483612dd5565b915061287582613156565b602082019050919050565b600061288d601383612dd5565b91506128988261317f565b602082019050919050565b60006128b0602983612dd5565b91506128bb826131a8565b604082019050919050565b60006128d3602e83612dd5565b91506128de826131f7565b604082019050919050565b60006128f6602083612dd5565b915061290182613246565b602082019050919050565b6000612919602083612dd5565b91506129248261326f565b602082019050919050565b600061293c601883612dd5565b915061294782613298565b602082019050919050565b600061295f602183612dd5565b915061296a826132c1565b604082019050919050565b6000612982603d83612dd5565b915061298d82613310565b604082019050919050565b60006129a5601383612dd5565b91506129b08261335f565b602082019050919050565b60006129c8600f83612dd5565b91506129d382613388565b602082019050919050565b6129e781612e5b565b82525050565b60006129f98284612737565b915081905092915050565b6000612a108285612737565b9150612a1c8284612737565b91508190509392505050565b6000602082019050612a3d60008301846126a7565b92915050565b6000608082019050612a5860008301876126a7565b612a6560208301866126a7565b612a7260408301856129de565b8181036060830152612a8481846126c5565b905095945050505050565b6000602082019050612aa460008301846126b6565b92915050565b60006020820190508181036000830152612ac481846126fe565b905092915050565b60006020820190508181036000830152612ae581612768565b9050919050565b60006020820190508181036000830152612b058161278b565b9050919050565b60006020820190508181036000830152612b25816127ae565b9050919050565b60006020820190508181036000830152612b45816127d1565b9050919050565b60006020820190508181036000830152612b65816127f4565b9050919050565b60006020820190508181036000830152612b8581612817565b9050919050565b60006020820190508181036000830152612ba58161283a565b9050919050565b60006020820190508181036000830152612bc58161285d565b9050919050565b60006020820190508181036000830152612be581612880565b9050919050565b60006020820190508181036000830152612c05816128a3565b9050919050565b60006020820190508181036000830152612c25816128c6565b9050919050565b60006020820190508181036000830152612c45816128e9565b9050919050565b60006020820190508181036000830152612c658161290c565b9050919050565b60006020820190508181036000830152612c858161292f565b9050919050565b60006020820190508181036000830152612ca581612952565b9050919050565b60006020820190508181036000830152612cc581612975565b9050919050565b60006020820190508181036000830152612ce581612998565b9050919050565b60006020820190508181036000830152612d05816129bb565b9050919050565b6000602082019050612d2160008301846129de565b92915050565b6000612d31612d42565b9050612d3d8282612ed9565b919050565b6000604051905090565b600067ffffffffffffffff821115612d6757612d66612f39565b5b612d7082612f68565b9050602081019050919050565b600067ffffffffffffffff821115612d9857612d97612f39565b5b612da182612f68565b9050602081019050919050565b600081519050919050565b600081519050919050565b600082825260208201905092915050565b600082825260208201905092915050565b600081905092915050565b6000612dfc82612e3b565b9050919050565b60008115159050919050565b60007fffffffff0000000000000000000000000000000000000000000000000000000082169050919050565b600073ffffffffffffffffffffffffffffffffffffffff82169050919050565b6000819050919050565b82818337600083830152505050565b60005b83811015612e92578082015181840152602081019050612e77565b83811115612ea1576000848401525b50505050565b60006002820490506001821680612ebf57607f821691505b60208210811415612ed357612ed2612f0a565b5b50919050565b612ee282612f68565b810181811067ffffffffffffffff82111715612f0157612f00612f39565b5b80604052505050565b7f4e487b7100000000000000000000000000000000000000000000000000000000600052602260045260246000fd5b7f4e487b7100000000000000000000000000000000000000000000000000000000600052604160045260246000fd5b6000601f19601f8301169050919050565b7f4552433732313a2063616c6c6572206973206e6f7420746f6b656e206f776e6560008201527f72206f7220617070726f76656400000000000000000000000000000000000000602082015250565b7f4552433732313a207472616e7366657220746f206e6f6e20455243373231526560008201527f63656976657220696d706c656d656e7465720000000000000000000000000000602082015250565b7f4f776e61626c653a206e6577206f776e657220697320746865207a65726f206160008201527f6464726573730000000000000000000000000000000000000000000000000000602082015250565b7f4552433732313a207472616e736665722066726f6d20696e636f72726563742060008201527f6f776e6572000000000000000000000000000000000000000000000000000000602082015250565b7f4552433732313a20746f6b656e20616c7265616479206d696e74656400000000600082015250565b7f4552433732313a207472616e7366657220746f20746865207a65726f2061646460008201527f7265737300000000000000000000000000000000000000000000000000000000602082015250565b7f4552433732313a20617070726f766520746f2063616c6c657200000000000000600082015250565b7f546f6b656e20646f6573206e6f74206578697374000000000000000000000000600082015250565b7f4e6f742074686520746f6b656e206f776e657200000000000000000000000000600082015250565b7f4552433732313a2061646472657373207a65726f206973206e6f74206120766160008201527f6c6964206f776e65720000000000000000000000000000000000000000000000602082015250565b7f45524337323155524953746f726167653a2055524920736574206f66206e6f6e60008201527f6578697374656e7420746f6b656e000000000000000000000000000000000000602082015250565b7f4552433732313a206d696e7420746f20746865207a65726f2061646472657373600082015250565b7f4f776e61626c653a2063616c6c6572206973206e6f7420746865206f776e6572600082015250565b7f4552433732313a20696e76616c696420746f6b656e2049440000000000000000600082015250565b7f4552433732313a20617070726f76616c20746f2063757272656e74206f776e6560008201527f7200000000000000000000000000000000000000000000000000000000000000602082015250565b7f4552433732313a20617070726f76652063616c6c6572206973206e6f7420746f60008201527f6b656e206f776e6572206f7220617070726f76656420666f7220616c6c000000602082015250565b7f4e465420616c7265616479206d696e7465642100000000000000000000000000600082015250565b7f4e65656420746f20706179207570210000000000000000000000000000000000600082015250565b6133ba81612df1565b81146133c557600080fd5b50565b6133d181612e03565b81146133dc57600080fd5b50565b6133e881612e0f565b81146133f357600080fd5b50565b6133ff81612e5b565b811461340a57600080fd5b5056fea2646970667358221220ee01e05eec5a79f329f804a71bb5f659412acd2070bd67aff11196977da0339d64736f6c63430008040033",
  "linkReferences": {},
  "deployedLinkReferences": {}
}